{
  "_format": "hh-sol-artifact-1",
  "contractName": "TodoContract",
  "sourceName": "contracts/Todo.sol",
  "abi": [
    {
      "anonymous": false,
      "inputs": [
        {
          "indexed": false,
          "internalType": "uint256",
          "name": "id",
          "type": "uint256"
        },
        {
          "indexed": false,
          "internalType": "bool",
          "name": "completed",
          "type": "bool"
        }
      ],
      "name": "TodoCompleted",
      "type": "event"
    },
    {
      "anonymous": false,
      "inputs": [
        {
          "indexed": false,
          "internalType": "uint256",
          "name": "id",
          "type": "uint256"
        }
      ],
      "name": "TodoCreated",
      "type": "event"
    },
    {
      "anonymous": false,
      "inputs": [
        {
          "indexed": false,
          "internalType": "uint256",
          "name": "id",
          "type": "uint256"
        }
      ],
      "name": "TodoDeleted",
      "type": "event"
    },
    {
      "inputs": [
        {
          "internalType": "uint256",
          "name": "id",
          "type": "uint256"
        }
      ],
      "name": "completeTodo",
      "outputs": [],
      "stateMutability": "nonpayable",
      "type": "function"
    },
    {
      "inputs": [
        {
          "internalType": "string",
          "name": "_task",
          "type": "string"
        }
      ],
      "name": "createTodo",
      "outputs": [],
      "stateMutability": "nonpayable",
      "type": "function"
    },
    {
      "inputs": [
        {
          "internalType": "uint256",
          "name": "id",
          "type": "uint256"
        }
      ],
      "name": "deleteTodo",
      "outputs": [],
      "stateMutability": "nonpayable",
      "type": "function"
    },
    {
      "inputs": [],
      "name": "getTodoIds",
      "outputs": [
        {
          "internalType": "uint256[]",
          "name": "",
          "type": "uint256[]"
        }
      ],
      "stateMutability": "view",
      "type": "function"
    },
    {
      "inputs": [
        {
          "internalType": "uint256",
          "name": "",
          "type": "uint256"
        }
      ],
      "name": "todoIds",
      "outputs": [
        {
          "internalType": "uint256",
          "name": "",
          "type": "uint256"
        }
      ],
      "stateMutability": "view",
      "type": "function"
    },
    {
      "inputs": [
        {
          "internalType": "uint256",
          "name": "",
          "type": "uint256"
        }
      ],
      "name": "todos",
      "outputs": [
        {
          "internalType": "uint256",
          "name": "id",
          "type": "uint256"
        },
        {
          "internalType": "string",
          "name": "task",
          "type": "string"
        },
        {
          "internalType": "bool",
          "name": "completed",
          "type": "bool"
        }
      ],
      "stateMutability": "view",
      "type": "function"
    }
  ],
  "bytecode": "0x6080604052600160005534801561001557600080fd5b50610bf8806100256000396000f3fe608060405234801561001057600080fd5b50600436106100625760003560e01c806303c5c31f1461006757806320fe2144146100975780636e3c6738146100b3578063bc8bc2b4146100cf578063e34f122114610101578063f77d85b71461011d575b600080fd5b610081600480360381019061007c9190610781565b61013b565b60405161008e91906108a8565b60405180910390f35b6100b160048036038101906100ac9190610781565b61015f565b005b6100cd60048036038101906100c89190610781565b6101f2565b005b6100e960048036038101906100e49190610781565b6103cd565b6040516100f8939291906108ec565b60405180910390f35b61011b60048036038101906101169190610740565b61048c565b005b610125610588565b6040516101329190610886565b60405180910390f35b6001818154811061014b57600080fd5b906000526020600020016000915090505481565b60006002600083815260200190815260200160002090508060020160009054906101000a900460ff16158160020160006101000a81548160ff0219169083151502179055507fb84a3507a15618a089880b44621cbac93a5991ec03f5e02e0c0b70273f94e71c828260020160009054906101000a900460ff166040516101e69291906108c3565b60405180910390a15050565b6002600082815260200190815260200160002060008082016000905560018201600061021e91906105e0565b6002820160006101000a81549060ff0219169055505060005b60018054905081101561039257816001828154811061027f577f4e487b7100000000000000000000000000000000000000000000000000000000600052603260045260246000fd5b9060005260206000200154141561037f5760018080805490506102a291906109d5565b815481106102d9577f4e487b7100000000000000000000000000000000000000000000000000000000600052603260045260246000fd5b90600052602060002001546001828154811061031e577f4e487b7100000000000000000000000000000000000000000000000000000000600052603260045260246000fd5b90600052602060002001819055506001805480610364577f4e487b7100000000000000000000000000000000000000000000000000000000600052603160045260246000fd5b60019003818190600052602060002001600090559055610392565b808061038a90610ac4565b915050610237565b507f1072e4eeea43a52d09f5b6dfc870a079948f706133840ce9239aebc57fabb65f816040516103c291906108a8565b60405180910390a150565b60026020528060005260406000206000915090508060000154908060010180546103f690610a61565b80601f016020809104026020016040519081016040528092919081815260200182805461042290610a61565b801561046f5780601f106104445761010080835404028352916020019161046f565b820191906000526020600020905b81548152906001019060200180831161045257829003601f168201915b5050505050908060020160009054906101000a900460ff16905083565b604051806060016040528060005481526020018281526020016000151581525060026000805481526020019081526020016000206000820151816000015560208201518160010190805190602001906104e6929190610620565b5060408201518160020160006101000a81548160ff021916908315150217905550905050600160005490806001815401808255809150506001900390600052602060002001600090919091909150557f969587c10fd1c8e896dbd62c20606e6b46069c3bb75f2a19faed07bf2f93686860005460405161056691906108a8565b60405180910390a160008081548092919061058090610ac4565b919050555050565b606060018054806020026020016040519081016040528092919081815260200182805480156105d657602002820191906000526020600020905b8154815260200190600101908083116105c2575b5050505050905090565b5080546105ec90610a61565b6000825580601f106105fe575061061d565b601f01602090049060005260206000209081019061061c91906106a6565b5b50565b82805461062c90610a61565b90600052602060002090601f01602090048101928261064e5760008555610695565b82601f1061066757805160ff1916838001178555610695565b82800160010185558215610695579182015b82811115610694578251825591602001919060010190610679565b5b5090506106a291906106a6565b5090565b5b808211156106bf5760008160009055506001016106a7565b5090565b60006106d66106d18461094f565b61092a565b9050828152602081018484840111156106ee57600080fd5b6106f9848285610a1f565b509392505050565b600082601f83011261071257600080fd5b81356107228482602086016106c3565b91505092915050565b60008135905061073a81610bab565b92915050565b60006020828403121561075257600080fd5b600082013567ffffffffffffffff81111561076c57600080fd5b61077884828501610701565b91505092915050565b60006020828403121561079357600080fd5b60006107a18482850161072b565b91505092915050565b60006107b68383610868565b60208301905092915050565b60006107cd82610990565b6107d781856109b3565b93506107e283610980565b8060005b838110156108135781516107fa88826107aa565b9750610805836109a6565b9250506001810190506107e6565b5085935050505092915050565b61082981610a09565b82525050565b600061083a8261099b565b61084481856109c4565b9350610854818560208601610a2e565b61085d81610b9a565b840191505092915050565b61087181610a15565b82525050565b61088081610a15565b82525050565b600060208201905081810360008301526108a081846107c2565b905092915050565b60006020820190506108bd6000830184610877565b92915050565b60006040820190506108d86000830185610877565b6108e56020830184610820565b9392505050565b60006060820190506109016000830186610877565b8181036020830152610913818561082f565b90506109226040830184610820565b949350505050565b6000610934610945565b90506109408282610a93565b919050565b6000604051905090565b600067ffffffffffffffff82111561096a57610969610b6b565b5b61097382610b9a565b9050602081019050919050565b6000819050602082019050919050565b600081519050919050565b600081519050919050565b6000602082019050919050565b600082825260208201905092915050565b600082825260208201905092915050565b60006109e082610a15565b91506109eb83610a15565b9250828210156109fe576109fd610b0d565b5b828203905092915050565b60008115159050919050565b6000819050919050565b82818337600083830152505050565b60005b83811015610a4c578082015181840152602081019050610a31565b83811115610a5b576000848401525b50505050565b60006002820490506001821680610a7957607f821691505b60208210811415610a8d57610a8c610b3c565b5b50919050565b610a9c82610b9a565b810181811067ffffffffffffffff82111715610abb57610aba610b6b565b5b80604052505050565b6000610acf82610a15565b91507fffffffffffffffffffffffffffffffffffffffffffffffffffffffffffffffff821415610b0257610b01610b0d565b5b600182019050919050565b7f4e487b7100000000000000000000000000000000000000000000000000000000600052601160045260246000fd5b7f4e487b7100000000000000000000000000000000000000000000000000000000600052602260045260246000fd5b7f4e487b7100000000000000000000000000000000000000000000000000000000600052604160045260246000fd5b6000601f19601f8301169050919050565b610bb481610a15565b8114610bbf57600080fd5b5056fea2646970667358221220095659921fac1ee5bb7986c531332f2efdcb5594e28b77ea9fab851bce0ceb7264736f6c63430008040033",
  "linkReferences": {},
  "deployedLinkReferences": {}
}